{
  "_format": "hh-sol-artifact-1",
  "contractName": "Project",
  "sourceName": "contracts/Project.sol",
  "abi": [
    {
      "inputs": [
        {
          "internalType": "string",
          "name": "name",
          "type": "string"
        },
        {
          "internalType": "string",
          "name": "owner",
          "type": "string"
        }
      ],
      "stateMutability": "nonpayable",
      "type": "constructor"
    },
    {
      "anonymous": false,
      "inputs": [
        {
          "indexed": false,
          "internalType": "uint256",
          "name": "id",
          "type": "uint256"
        },
        {
          "indexed": false,
          "internalType": "address",
          "name": "issuer",
          "type": "address"
        }
      ],
      "name": "IssueAdded",
      "type": "event"
    },
    {
      "inputs": [
        {
          "internalType": "uint256",
          "name": "",
          "type": "uint256"
        }
      ],
      "name": "_issues",
      "outputs": [
        {
          "internalType": "address",
          "name": "",
          "type": "address"
        }
      ],
      "stateMutability": "view",
      "type": "function"
    },
    {
      "inputs": [],
      "name": "_name",
      "outputs": [
        {
          "internalType": "string",
          "name": "",
          "type": "string"
        }
      ],
      "stateMutability": "view",
      "type": "function"
    },
    {
      "inputs": [],
      "name": "_owner",
      "outputs": [
        {
          "internalType": "string",
          "name": "",
          "type": "string"
        }
      ],
      "stateMutability": "view",
      "type": "function"
    },
    {
      "inputs": [
        {
          "internalType": "uint256",
          "name": "_id",
          "type": "uint256"
        }
      ],
      "name": "createIssue",
      "outputs": [
        {
          "internalType": "address",
          "name": "",
          "type": "address"
        }
      ],
      "stateMutability": "nonpayable",
      "type": "function"
    },
    {
      "inputs": [
        {
          "internalType": "uint256",
          "name": "id",
          "type": "uint256"
        }
      ],
      "name": "getIssue",
      "outputs": [
        {
          "internalType": "address",
          "name": "",
          "type": "address"
        }
      ],
      "stateMutability": "view",
      "type": "function"
    },
    {
      "inputs": [],
      "name": "getName",
      "outputs": [
        {
          "internalType": "string",
          "name": "",
          "type": "string"
        }
      ],
      "stateMutability": "view",
      "type": "function"
    },
    {
      "inputs": [],
      "name": "getOwner",
      "outputs": [
        {
          "internalType": "string",
          "name": "",
          "type": "string"
        }
      ],
      "stateMutability": "view",
      "type": "function"
    }
  ],
  "bytecode": "0x60806040523480156200001157600080fd5b50604051620012d5380380620012d58339818101604052810190620000379190620001f6565b8160019081620000489190620004c6565b5080600290816200005a9190620004c6565b505050620005ad565b6000604051905090565b600080fd5b600080fd5b600080fd5b600080fd5b6000601f19601f8301169050919050565b7f4e487b7100000000000000000000000000000000000000000000000000000000600052604160045260246000fd5b620000cc8262000081565b810181811067ffffffffffffffff82111715620000ee57620000ed62000092565b5b80604052505050565b60006200010362000063565b9050620001118282620000c1565b919050565b600067ffffffffffffffff82111562000134576200013362000092565b5b6200013f8262000081565b9050602081019050919050565b60005b838110156200016c5780820151818401526020810190506200014f565b60008484015250505050565b60006200018f620001898462000116565b620000f7565b905082815260208101848484011115620001ae57620001ad6200007c565b5b620001bb8482856200014c565b509392505050565b600082601f830112620001db57620001da62000077565b5b8151620001ed84826020860162000178565b91505092915050565b6000806040838503121562000210576200020f6200006d565b5b600083015167ffffffffffffffff81111562000231576200023062000072565b5b6200023f85828601620001c3565b925050602083015167ffffffffffffffff81111562000263576200026262000072565b5b6200027185828601620001c3565b9150509250929050565b600081519050919050565b7f4e487b7100000000000000000000000000000000000000000000000000000000600052602260045260246000fd5b60006002820490506001821680620002ce57607f821691505b602082108103620002e457620002e362000286565b5b50919050565b60008190508160005260206000209050919050565b60006020601f8301049050919050565b600082821b905092915050565b6000600883026200034e7fffffffffffffffffffffffffffffffffffffffffffffffffffffffffffffffff826200030f565b6200035a86836200030f565b95508019841693508086168417925050509392505050565b6000819050919050565b6000819050919050565b6000620003a7620003a16200039b8462000372565b6200037c565b62000372565b9050919050565b6000819050919050565b620003c38362000386565b620003db620003d282620003ae565b8484546200031c565b825550505050565b600090565b620003f2620003e3565b620003ff818484620003b8565b505050565b5b8181101562000427576200041b600082620003e8565b60018101905062000405565b5050565b601f82111562000476576200044081620002ea565b6200044b84620002ff565b810160208510156200045b578190505b620004736200046a85620002ff565b83018262000404565b50505b505050565b600082821c905092915050565b60006200049b600019846008026200047b565b1980831691505092915050565b6000620004b6838362000488565b9150826002028217905092915050565b620004d1826200027b565b67ffffffffffffffff811115620004ed57620004ec62000092565b5b620004f98254620002b5565b620005068282856200042b565b600060209050601f8311600181146200053e576000841562000529578287015190505b620005358582620004a8565b865550620005a5565b601f1984166200054e86620002ea565b60005b82811015620005785784890151825560018201915060208501945060208101905062000551565b8683101562000598578489015162000594601f89168262000488565b8355505b6001600288020188555050505b505050505050565b610d1880620005bd6000396000f3fe608060405234801561001057600080fd5b506004361061007d5760003560e01c8063893d20e81161005b578063893d20e814610100578063976b31131461011e578063b2bdfa7b1461014e578063d28d88521461016c5761007d565b806317d7de7c1461008257806318e5df5f146100a05780634b066b0c146100d0575b600080fd5b61008a61018a565b60405161009791906105a8565b60405180910390f35b6100ba60048036038101906100b59190610605565b61021c565b6040516100c79190610673565b60405180910390f35b6100ea60048036038101906100e59190610605565b6102ee565b6040516100f79190610673565b60405180910390f35b610108610321565b60405161011591906105a8565b60405180910390f35b61013860048036038101906101339190610605565b6103b3565b6040516101459190610673565b60405180910390f35b6101566103ef565b60405161016391906105a8565b60405180910390f35b61017461047d565b60405161018191906105a8565b60405180910390f35b606060018054610199906106bd565b80601f01602080910402602001604051908101604052809291908181526020018280546101c5906106bd565b80156102125780601f106101e757610100808354040283529160200191610212565b820191906000526020600020905b8154815290600101906020018083116101f557829003601f168201915b5050505050905090565b6000808260405161022c9061050b565b61023691906106fd565b604051809103906000f080158015610252573d6000803e3d6000fd5b50905060008190508060008086815260200190815260200160002060006101000a81548173ffffffffffffffffffffffffffffffffffffffff021916908373ffffffffffffffffffffffffffffffffffffffff1602179055507fda5d647000818db4291dc10f443247b65bbb8e8295f1f789408ad8cf19c4509684826040516102dc929190610718565b60405180910390a18092505050919050565b60006020528060005260406000206000915054906101000a900473ffffffffffffffffffffffffffffffffffffffff1681565b606060028054610330906106bd565b80601f016020809104026020016040519081016040528092919081815260200182805461035c906106bd565b80156103a95780601f1061037e576101008083540402835291602001916103a9565b820191906000526020600020905b81548152906001019060200180831161038c57829003601f168201915b5050505050905090565b600080600083815260200190815260200160002060009054906101000a900473ffffffffffffffffffffffffffffffffffffffff169050919050565b600280546103fc906106bd565b80601f0160208091040260200160405190810160405280929190818152602001828054610428906106bd565b80156104755780601f1061044a57610100808354040283529160200191610475565b820191906000526020600020905b81548152906001019060200180831161045857829003601f168201915b505050505081565b6001805461048a906106bd565b80601f01602080910402602001604051908101604052809291908181526020018280546104b6906106bd565b80156105035780601f106104d857610100808354040283529160200191610503565b820191906000526020600020905b8154815290600101906020018083116104e657829003601f168201915b505050505081565b6105a18061074283390190565b600081519050919050565b600082825260208201905092915050565b60005b83811015610552578082015181840152602081019050610537565b60008484015250505050565b6000601f19601f8301169050919050565b600061057a82610518565b6105848185610523565b9350610594818560208601610534565b61059d8161055e565b840191505092915050565b600060208201905081810360008301526105c2818461056f565b905092915050565b600080fd5b6000819050919050565b6105e2816105cf565b81146105ed57600080fd5b50565b6000813590506105ff816105d9565b92915050565b60006020828403121561061b5761061a6105ca565b5b6000610629848285016105f0565b91505092915050565b600073ffffffffffffffffffffffffffffffffffffffff82169050919050565b600061065d82610632565b9050919050565b61066d81610652565b82525050565b60006020820190506106886000830184610664565b92915050565b7f4e487b7100000000000000000000000000000000000000000000000000000000600052602260045260246000fd5b600060028204905060018216806106d557607f821691505b6020821081036106e8576106e761068e565b5b50919050565b6106f7816105cf565b82525050565b600060208201905061071260008301846106ee565b92915050565b600060408201905061072d60008301856106ee565b61073a6020830184610664565b939250505056fe608060405234801561001057600080fd5b506040516105a13803806105a18339818101604052810190610032919061007a565b80600281905550506100a7565b600080fd5b6000819050919050565b61005781610044565b811461006257600080fd5b50565b6000815190506100748161004e565b92915050565b6000602082840312156100905761008f61003f565b5b600061009e84828501610065565b91505092915050565b6104eb806100b66000396000f3fe6080604052600436106100705760003560e01c80635d1ca6311161004e5780635d1ca631146100e7578063bac4dba614610112578063c6ec08fe1461014f578063f49bff7b1461018c57610070565b8063051802371461007557806338e43895146100a05780633d8f4afb146100bc575b600080fd5b34801561008157600080fd5b5061008a6101b7565b6040516100979190610308565b60405180910390f35b6100ba60048036038101906100b59190610354565b6101bd565b005b3480156100c857600080fd5b506100d1610277565b6040516100de9190610308565b60405180910390f35b3480156100f357600080fd5b506100fc61027d565b6040516101099190610308565b60405180910390f35b34801561011e57600080fd5b50610139600480360381019061013491906103df565b610287565b6040516101469190610308565b60405180910390f35b34801561015b57600080fd5b50610176600480360381019061017191906103df565b6102cf565b6040516101839190610308565b60405180910390f35b34801561019857600080fd5b506101a16102e7565b6040516101ae9190610308565b60405180910390f35b60025481565b8034146101c957600080fd5b7f6528cb8b81da63fb1bed84b4a880a2930ed414c089cd9b0b52cacb1d1ef5ab7560025433836040516101fe9392919061041b565b60405180910390a1806000803373ffffffffffffffffffffffffffffffffffffffff1673ffffffffffffffffffffffffffffffffffffffff16815260200190815260200160002060008282546102549190610481565b92505081905550806001600082825461026d9190610481565b9250508190555050565b60015481565b6000600254905090565b60008060008373ffffffffffffffffffffffffffffffffffffffff1673ffffffffffffffffffffffffffffffffffffffff168152602001908152602001600020549050919050565b60006020528060005260406000206000915090505481565b600047905090565b6000819050919050565b610302816102ef565b82525050565b600060208201905061031d60008301846102f9565b92915050565b600080fd5b610331816102ef565b811461033c57600080fd5b50565b60008135905061034e81610328565b92915050565b60006020828403121561036a57610369610323565b5b60006103788482850161033f565b91505092915050565b600073ffffffffffffffffffffffffffffffffffffffff82169050919050565b60006103ac82610381565b9050919050565b6103bc816103a1565b81146103c757600080fd5b50565b6000813590506103d9816103b3565b92915050565b6000602082840312156103f5576103f4610323565b5b6000610403848285016103ca565b91505092915050565b610415816103a1565b82525050565b600060608201905061043060008301866102f9565b61043d602083018561040c565b61044a60408301846102f9565b949350505050565b7f4e487b7100000000000000000000000000000000000000000000000000000000600052601160045260246000fd5b600061048c826102ef565b9150610497836102ef565b92508282019050808211156104af576104ae610452565b5b9291505056fea2646970667358221220409779969c9cda53460bbb96253d9141294f15b062097ed3dba3933a497ea17164736f6c63430008110033a2646970667358221220c47525f5549813b9d7cd81c06c209ed2454f4f16332247da0ecf7c60a305c6fd64736f6c63430008110033",
  "linkReferences": {},
  "deployedLinkReferences": {}
}