{
  "_format": "hh-sol-artifact-1",
  "contractName": "Users",
  "sourceName": "contracts/Users.sol",
  "abi": [
    {
      "inputs": [
        {
          "internalType": "string",
          "name": "name",
          "type": "string"
        },
        {
          "internalType": "address",
          "name": "add",
          "type": "address"
        }
      ],
      "name": "addUser",
      "outputs": [],
      "stateMutability": "nonpayable",
      "type": "function"
    },
    {
      "inputs": [
        {
          "internalType": "string",
          "name": "name",
          "type": "string"
        }
      ],
      "name": "getUser",
      "outputs": [
        {
          "internalType": "address",
          "name": "",
          "type": "address"
        }
      ],
      "stateMutability": "view",
      "type": "function"
    },
    {
      "inputs": [],
      "name": "getWalletCheck",
      "outputs": [
        {
          "internalType": "address",
          "name": "",
          "type": "address"
        }
      ],
      "stateMutability": "view",
      "type": "function"
    },
    {
      "inputs": [
        {
          "internalType": "address",
          "name": "_walletCheck",
          "type": "address"
        }
      ],
      "name": "setWalletCheck",
      "outputs": [],
      "stateMutability": "nonpayable",
      "type": "function"
    },
    {
      "inputs": [
        {
          "internalType": "string",
          "name": "",
          "type": "string"
        }
      ],
      "name": "users",
      "outputs": [
        {
          "internalType": "address",
          "name": "",
          "type": "address"
        }
      ],
      "stateMutability": "view",
      "type": "function"
    }
  ],
  "bytecode": "0x608060405234801561001057600080fd5b506106f0806100206000396000f3fe608060405234801561001057600080fd5b50600436106100575760003560e01c806331feb6711461005c5780636100a8f51461008c578063689e1c03146100a8578063864a0d0a146100d8578063e8a3048d146100f4575b600080fd5b6100766004803603810190610071919061045b565b610112565b60405161008391906104e5565b60405180910390f35b6100a660048036038101906100a1919061052c565b610159565b005b6100c260048036038101906100bd919061045b565b61019d565b6040516100cf91906104e5565b60405180910390f35b6100f260048036038101906100ed9190610559565b6101e6565b005b6100fc6102d7565b60405161010991906104e5565b60405180910390f35b600080826040516101239190610626565b908152602001604051809103902060009054906101000a900473ffffffffffffffffffffffffffffffffffffffff169050919050565b80600160006101000a81548173ffffffffffffffffffffffffffffffffffffffff021916908373ffffffffffffffffffffffffffffffffffffffff16021790555050565b6000818051602081018201805184825260208301602085012081835280955050505050506000915054906101000a900473ffffffffffffffffffffffffffffffffffffffff1681565b600160009054906101000a900473ffffffffffffffffffffffffffffffffffffffff1673ffffffffffffffffffffffffffffffffffffffff163373ffffffffffffffffffffffffffffffffffffffff1614610276576040517f08c379a000000000000000000000000000000000000000000000000000000000815260040161026d9061069a565b60405180910390fd5b806000836040516102879190610626565b908152602001604051809103902060006101000a81548173ffffffffffffffffffffffffffffffffffffffff021916908373ffffffffffffffffffffffffffffffffffffffff1602179055505050565b6000600160009054906101000a900473ffffffffffffffffffffffffffffffffffffffff16905090565b6000604051905090565b600080fd5b600080fd5b600080fd5b600080fd5b6000601f19601f8301169050919050565b7f4e487b7100000000000000000000000000000000000000000000000000000000600052604160045260246000fd5b6103688261031f565b810181811067ffffffffffffffff8211171561038757610386610330565b5b80604052505050565b600061039a610301565b90506103a6828261035f565b919050565b600067ffffffffffffffff8211156103c6576103c5610330565b5b6103cf8261031f565b9050602081019050919050565b82818337600083830152505050565b60006103fe6103f9846103ab565b610390565b90508281526020810184848401111561041a5761041961031a565b5b6104258482856103dc565b509392505050565b600082601f83011261044257610441610315565b5b81356104528482602086016103eb565b91505092915050565b6000602082840312156104715761047061030b565b5b600082013567ffffffffffffffff81111561048f5761048e610310565b5b61049b8482850161042d565b91505092915050565b600073ffffffffffffffffffffffffffffffffffffffff82169050919050565b60006104cf826104a4565b9050919050565b6104df816104c4565b82525050565b60006020820190506104fa60008301846104d6565b92915050565b610509816104c4565b811461051457600080fd5b50565b60008135905061052681610500565b92915050565b6000602082840312156105425761054161030b565b5b600061055084828501610517565b91505092915050565b600080604083850312156105705761056f61030b565b5b600083013567ffffffffffffffff81111561058e5761058d610310565b5b61059a8582860161042d565b92505060206105ab85828601610517565b9150509250929050565b600081519050919050565b600081905092915050565b60005b838110156105e95780820151818401526020810190506105ce565b60008484015250505050565b6000610600826105b5565b61060a81856105c0565b935061061a8185602086016105cb565b80840191505092915050565b600061063282846105f5565b915081905092915050565b600082825260208201905092915050565b7f4f6e6c792077616c6c6574436865636b2063616e206164642075736572730000600082015250565b6000610684601e8361063d565b915061068f8261064e565b602082019050919050565b600060208201905081810360008301526106b381610677565b905091905056fea2646970667358221220f0254e0bea9eb430c56724ce7dc4c8dddf75bac1c989a9ac46646f0461320fb564736f6c63430008110033",
  "linkReferences": {},
  "deployedLinkReferences": {}
}