{
  "_format": "hh-sol-artifact-1",
  "contractName": "WalletCheck",
  "sourceName": "contracts/WalletCheck.sol",
  "abi": [
    {
      "inputs": [
        {
          "internalType": "address",
          "name": "_oracle",
          "type": "address"
        },
        {
          "internalType": "bytes32",
          "name": "_jobId",
          "type": "bytes32"
        },
        {
          "internalType": "uint256",
          "name": "_fee",
          "type": "uint256"
        },
        {
          "internalType": "address",
          "name": "_link",
          "type": "address"
        },
        {
          "internalType": "address",
          "name": "_users",
          "type": "address"
        }
      ],
      "stateMutability": "nonpayable",
      "type": "constructor"
    },
    {
      "anonymous": false,
      "inputs": [
        {
          "indexed": true,
          "internalType": "bytes32",
          "name": "id",
          "type": "bytes32"
        }
      ],
      "name": "ChainlinkCancelled",
      "type": "event"
    },
    {
      "anonymous": false,
      "inputs": [
        {
          "indexed": true,
          "internalType": "bytes32",
          "name": "id",
          "type": "bytes32"
        }
      ],
      "name": "ChainlinkFulfilled",
      "type": "event"
    },
    {
      "anonymous": false,
      "inputs": [
        {
          "indexed": true,
          "internalType": "bytes32",
          "name": "id",
          "type": "bytes32"
        }
      ],
      "name": "ChainlinkRequested",
      "type": "event"
    },
    {
      "inputs": [
        {
          "internalType": "bytes",
          "name": "b",
          "type": "bytes"
        }
      ],
      "name": "bytesToAddress",
      "outputs": [
        {
          "internalType": "address",
          "name": "addr",
          "type": "address"
        }
      ],
      "stateMutability": "pure",
      "type": "function"
    },
    {
      "inputs": [],
      "name": "data",
      "outputs": [
        {
          "internalType": "bytes",
          "name": "",
          "type": "bytes"
        }
      ],
      "stateMutability": "view",
      "type": "function"
    },
    {
      "inputs": [
        {
          "internalType": "bytes32",
          "name": "_requestId",
          "type": "bytes32"
        },
        {
          "internalType": "bytes",
          "name": "_data",
          "type": "bytes"
        }
      ],
      "name": "fulfill",
      "outputs": [],
      "stateMutability": "nonpayable",
      "type": "function"
    },
    {
      "inputs": [],
      "name": "getData",
      "outputs": [
        {
          "internalType": "bytes",
          "name": "",
          "type": "bytes"
        }
      ],
      "stateMutability": "view",
      "type": "function"
    },
    {
      "inputs": [
        {
          "internalType": "string",
          "name": "username",
          "type": "string"
        }
      ],
      "name": "requestWalletAddress",
      "outputs": [
        {
          "internalType": "bytes32",
          "name": "",
          "type": "bytes32"
        }
      ],
      "stateMutability": "nonpayable",
      "type": "function"
    },
    {
      "inputs": [],
      "name": "users",
      "outputs": [
        {
          "internalType": "contract Users",
          "name": "",
          "type": "address"
        }
      ],
      "stateMutability": "view",
      "type": "function"
    },
    {
      "inputs": [],
      "name": "withdrawLink",
      "outputs": [],
      "stateMutability": "nonpayable",
      "type": "function"
    }
  ],
  "bytecode": "0x60e060405260016004553480156200001657600080fd5b50604051620022ec380380620022ec83398181016040528101906200003c9190620002e5565b600073ffffffffffffffffffffffffffffffffffffffff168273ffffffffffffffffffffffffffffffffffffffff16036200008757620000816200012960201b60201c565b62000099565b6200009882620001c160201b60201c565b5b8473ffffffffffffffffffffffffffffffffffffffff1660808173ffffffffffffffffffffffffffffffffffffffff16815250508360a081815250508260c0818152505080600860006101000a81548173ffffffffffffffffffffffffffffffffffffffff021916908373ffffffffffffffffffffffffffffffffffffffff16021790555050505050506200039f565b620001bf73c89bd4e1632d3a43cb03aaad5262cbe4038bc57173ffffffffffffffffffffffffffffffffffffffff166338cc48316040518163ffffffff1660e01b8152600401602060405180830381865afa1580156200018d573d6000803e3d6000fd5b505050506040513d601f19601f82011682018060405250810190620001b391906200036d565b620001c160201b60201c565b565b80600260006101000a81548173ffffffffffffffffffffffffffffffffffffffff021916908373ffffffffffffffffffffffffffffffffffffffff16021790555050565b600080fd5b600073ffffffffffffffffffffffffffffffffffffffff82169050919050565b600062000237826200020a565b9050919050565b62000249816200022a565b81146200025557600080fd5b50565b60008151905062000269816200023e565b92915050565b6000819050919050565b62000284816200026f565b81146200029057600080fd5b50565b600081519050620002a48162000279565b92915050565b6000819050919050565b620002bf81620002aa565b8114620002cb57600080fd5b50565b600081519050620002df81620002b4565b92915050565b600080600080600060a0868803121562000304576200030362000205565b5b6000620003148882890162000258565b9550506020620003278882890162000293565b94505060406200033a88828901620002ce565b93505060606200034d8882890162000258565b9250506080620003608882890162000258565b9150509295509295909350565b60006020828403121562000386576200038562000205565b5b6000620003968482850162000258565b91505092915050565b60805160a05160c051611f1d620003cf600039600061051e0152600061045d015260006104fc0152611f1d6000f3fe608060405234801561001057600080fd5b506004361061007d5760003560e01c80637c1de7e11161005b5780637c1de7e1146100ee5780638dc654a21461010a578063ca32dd2a14610114578063f2020275146101445761007d565b80633bc5de301461008257806342526e4e146100a057806373d4a13a146100d0575b600080fd5b61008a610162565b6040516100979190610eaa565b60405180910390f35b6100ba60048036038101906100b59190611015565b6101f4565b6040516100c7919061109f565b60405180910390f35b6100d8610202565b6040516100e59190610eaa565b60405180910390f35b610108600480360381019061010391906110f0565b610290565b005b610112610453565b005b61012e600480360381019061012991906111ed565b610455565b60405161013b9190611245565b60405180910390f35b61014c61056f565b60405161015991906112bf565b60405180910390f35b60606007805461017190611309565b80601f016020809104026020016040519081016040528092919081815260200182805461019d90611309565b80156101ea5780601f106101bf576101008083540402835291602001916101ea565b820191906000526020600020905b8154815290600101906020018083116101cd57829003601f168201915b5050505050905090565b600060148201519050919050565b6007805461020f90611309565b80601f016020809104026020016040519081016040528092919081815260200182805461023b90611309565b80156102885780601f1061025d57610100808354040283529160200191610288565b820191906000526020600020905b81548152906001019060200180831161026b57829003601f168201915b505050505081565b816005600082815260200190815260200160002060009054906101000a900473ffffffffffffffffffffffffffffffffffffffff1673ffffffffffffffffffffffffffffffffffffffff163373ffffffffffffffffffffffffffffffffffffffff1614610332576040517f08c379a0000000000000000000000000000000000000000000000000000000008152600401610329906113bd565b60405180910390fd5b6005600082815260200190815260200160002060006101000a81549073ffffffffffffffffffffffffffffffffffffffff0219169055807f7cc135e0cebb02c3480ae5d74d377283180a2601f8f644edf7987b009316c63a60405160405180910390a281600790816103a49190611589565b50600860009054906101000a900473ffffffffffffffffffffffffffffffffffffffff1673ffffffffffffffffffffffffffffffffffffffff1663864a0d0a600660008681526020019081526020016000206103ff856101f4565b6040518363ffffffff1660e01b815260040161041c9291906116f4565b600060405180830381600087803b15801561043657600080fd5b505af115801561044a573d6000803e3d6000fd5b50505050505050565b565b60008061048a7f000000000000000000000000000000000000000000000000000000000000000030637c1de7e160e01b610595565b90506104f56040518060400160405280600381526020017f6765740000000000000000000000000000000000000000000000000000000000815250846040516020016104d6919061184f565b604051602081830303815290604052836105c69092919063ffffffff16565b60006105427f0000000000000000000000000000000000000000000000000000000000000000837f00000000000000000000000000000000000000000000000000000000000000006105f9565b90508360066000838152602001908152602001600020908161056491906118c2565b508092505050919050565b600860009054906101000a900473ffffffffffffffffffffffffffffffffffffffff1681565b61059d610d93565b6105a5610d93565b6105bc858585846106c3909392919063ffffffff16565b9150509392505050565b6105dd82846080015161077390919063ffffffff16565b6105f481846080015161077390919063ffffffff16565b505050565b600080600454905060018161060e91906119c3565b6004819055506000633c6d41b960e01b600080876000015188604001518660028b608001516000015160405160240161064d9796959493929190611a41565b604051602081830303815290604052907bffffffffffffffffffffffffffffffffffffffffffffffffffffffff19166020820180517bffffffffffffffffffffffffffffffffffffffffffffffffffffffff838183161783525050505090506106b886838684610798565b925050509392505050565b6106cb610d93565b6106db856080015161010061092d565b508385600001818152505082856020019073ffffffffffffffffffffffffffffffffffffffff16908173ffffffffffffffffffffffffffffffffffffffff16815250508185604001907bffffffffffffffffffffffffffffffffffffffffffffffffffffffff191690817bffffffffffffffffffffffffffffffffffffffffffffffffffffffff191681525050849050949350505050565b6107808260038351610997565b6107938183610b1c90919063ffffffff16565b505050565b600030846040516020016107ad929190611b32565b604051602081830303815290604052805190602001209050846005600083815260200190815260200160002060006101000a81548173ffffffffffffffffffffffffffffffffffffffff021916908373ffffffffffffffffffffffffffffffffffffffff160217905550807fb5e6e01e79f91267dc17b4e6314d5d4d03593d2ceee0fbb452b750bd70ea5af960405160405180910390a2600260009054906101000a900473ffffffffffffffffffffffffffffffffffffffff1673ffffffffffffffffffffffffffffffffffffffff16634000aea08685856040518463ffffffff1660e01b81526004016108a393929190611b5e565b6020604051808303816000875af11580156108c2573d6000803e3d6000fd5b505050506040513d601f19601f820116820180604052508101906108e69190611bd4565b610925576040517f08c379a000000000000000000000000000000000000000000000000000000000815260040161091c90611c73565b60405180910390fd5b949350505050565b610935610e00565b60006020836109449190611cc2565b14610970576020826109569190611cc2565b60206109629190611cf3565b8261096d91906119c3565b91505b81836020018181525050604051808452600081528281016020016040525082905092915050565b60178167ffffffffffffffff16116109ce576109c88160058460ff16901b60ff161784610b3e90919063ffffffff16565b50610b17565b60ff8167ffffffffffffffff1611610a24576109fd601860058460ff16901b1784610b3e90919063ffffffff16565b50610a1e8167ffffffffffffffff16600185610b5e9092919063ffffffff16565b50610b16565b61ffff8167ffffffffffffffff1611610a7b57610a54601960058460ff16901b1784610b3e90919063ffffffff16565b50610a758167ffffffffffffffff16600285610b5e9092919063ffffffff16565b50610b15565b63ffffffff8167ffffffffffffffff1611610ad457610aad601a60058460ff16901b1784610b3e90919063ffffffff16565b50610ace8167ffffffffffffffff16600485610b5e9092919063ffffffff16565b50610b14565b610af1601b60058460ff16901b1784610b3e90919063ffffffff16565b50610b128167ffffffffffffffff16600885610b5e9092919063ffffffff16565b505b5b5b5b505050565b610b24610e00565b610b3683846000015151848551610b80565b905092915050565b610b46610e00565b610b568384600001515184610c6f565b905092915050565b610b66610e00565b610b77848560000151518585610cc5565b90509392505050565b610b88610e00565b8251821115610b9657600080fd5b84602001518285610ba791906119c3565b1115610bdc57610bdb856002610bcc88602001518887610bc791906119c3565b610d53565b610bd69190611d27565b610d6f565b5b600080865180518760208301019350808887011115610bfb5787860182525b60208701925050505b60208410610c425780518252602082610c1d91906119c3565b9150602081610c2c91906119c3565b9050602084610c3b9190611cf3565b9350610c04565b60006001856020036101000a03905080198251168184511681811785525050508692505050949350505050565b610c77610e00565b83602001518310610c9d57610c9c8460028660200151610c979190611d27565b610d6f565b5b83518051602085830101848153818603610cb8576001820183525b5050508390509392505050565b610ccd610e00565b84602001518483610cde91906119c3565b1115610d0657610d058560028685610cf691906119c3565b610d009190611d27565b610d6f565b5b6000600183610100610d189190611e9c565b610d229190611cf3565b90508551838682010185831982511617815281518588011115610d455784870182525b505085915050949350505050565b600081831115610d6557829050610d69565b8190505b92915050565b600082600001519050610d82838361092d565b50610d8d8382610b1c565b50505050565b6040518060a0016040528060008019168152602001600073ffffffffffffffffffffffffffffffffffffffff16815260200160007bffffffffffffffffffffffffffffffffffffffffffffffffffffffff1916815260200160008152602001610dfa610e00565b81525090565b604051806040016040528060608152602001600081525090565b600081519050919050565b600082825260208201905092915050565b60005b83811015610e54578082015181840152602081019050610e39565b60008484015250505050565b6000601f19601f8301169050919050565b6000610e7c82610e1a565b610e868185610e25565b9350610e96818560208601610e36565b610e9f81610e60565b840191505092915050565b60006020820190508181036000830152610ec48184610e71565b905092915050565b6000604051905090565b600080fd5b600080fd5b600080fd5b600080fd5b7f4e487b7100000000000000000000000000000000000000000000000000000000600052604160045260246000fd5b610f2282610e60565b810181811067ffffffffffffffff82111715610f4157610f40610eea565b5b80604052505050565b6000610f54610ecc565b9050610f608282610f19565b919050565b600067ffffffffffffffff821115610f8057610f7f610eea565b5b610f8982610e60565b9050602081019050919050565b82818337600083830152505050565b6000610fb8610fb384610f65565b610f4a565b905082815260208101848484011115610fd457610fd3610ee5565b5b610fdf848285610f96565b509392505050565b600082601f830112610ffc57610ffb610ee0565b5b813561100c848260208601610fa5565b91505092915050565b60006020828403121561102b5761102a610ed6565b5b600082013567ffffffffffffffff81111561104957611048610edb565b5b61105584828501610fe7565b91505092915050565b600073ffffffffffffffffffffffffffffffffffffffff82169050919050565b60006110898261105e565b9050919050565b6110998161107e565b82525050565b60006020820190506110b46000830184611090565b92915050565b6000819050919050565b6110cd816110ba565b81146110d857600080fd5b50565b6000813590506110ea816110c4565b92915050565b6000806040838503121561110757611106610ed6565b5b6000611115858286016110db565b925050602083013567ffffffffffffffff81111561113657611135610edb565b5b61114285828601610fe7565b9150509250929050565b600067ffffffffffffffff82111561116757611166610eea565b5b61117082610e60565b9050602081019050919050565b600061119061118b8461114c565b610f4a565b9050828152602081018484840111156111ac576111ab610ee5565b5b6111b7848285610f96565b509392505050565b600082601f8301126111d4576111d3610ee0565b5b81356111e484826020860161117d565b91505092915050565b60006020828403121561120357611202610ed6565b5b600082013567ffffffffffffffff81111561122157611220610edb565b5b61122d848285016111bf565b91505092915050565b61123f816110ba565b82525050565b600060208201905061125a6000830184611236565b92915050565b6000819050919050565b600061128561128061127b8461105e565b611260565b61105e565b9050919050565b60006112978261126a565b9050919050565b60006112a98261128c565b9050919050565b6112b98161129e565b82525050565b60006020820190506112d460008301846112b0565b92915050565b7f4e487b7100000000000000000000000000000000000000000000000000000000600052602260045260246000fd5b6000600282049050600182168061132157607f821691505b602082108103611334576113336112da565b5b50919050565b600082825260208201905092915050565b7f536f75726365206d75737420626520746865206f7261636c65206f662074686560008201527f2072657175657374000000000000000000000000000000000000000000000000602082015250565b60006113a760288361133a565b91506113b28261134b565b604082019050919050565b600060208201905081810360008301526113d68161139a565b9050919050565b60008190508160005260206000209050919050565b60006020601f8301049050919050565b600082821b905092915050565b60006008830261143f7fffffffffffffffffffffffffffffffffffffffffffffffffffffffffffffffff82611402565b6114498683611402565b95508019841693508086168417925050509392505050565b6000819050919050565b600061148661148161147c84611461565b611260565b611461565b9050919050565b6000819050919050565b6114a08361146b565b6114b46114ac8261148d565b84845461140f565b825550505050565b600090565b6114c96114bc565b6114d4818484611497565b505050565b5b818110156114f8576114ed6000826114c1565b6001810190506114da565b5050565b601f82111561153d5761150e816113dd565b611517846113f2565b81016020851015611526578190505b61153a611532856113f2565b8301826114d9565b50505b505050565b600082821c905092915050565b600061156060001984600802611542565b1980831691505092915050565b6000611579838361154f565b9150826002028217905092915050565b61159282610e1a565b67ffffffffffffffff8111156115ab576115aa610eea565b5b6115b58254611309565b6115c08282856114fc565b600060209050601f8311600181146115f357600084156115e1578287015190505b6115eb858261156d565b865550611653565b601f198416611601866113dd565b60005b8281101561162957848901518255600182019150602085019450602081019050611604565b868310156116465784890151611642601f89168261154f565b8355505b6001600288020188555050505b505050505050565b60008190508160005260206000209050919050565b6000815461167d81611309565b611687818661133a565b945060018216600081146116a257600181146116b8576116eb565b60ff1983168652811515602002860193506116eb565b6116c18561165b565b60005b838110156116e3578154818901526001820191506020810190506116c4565b808801955050505b50505092915050565b6000604082019050818103600083015261170e8185611670565b905061171d6020830184611090565b9392505050565b600081905092915050565b7f68747470733a2f2f7261772e67697468756275736572636f6e74656e742e636f60008201527f6d2f000000000000000000000000000000000000000000000000000000000000602082015250565b600061178b602283611724565b91506117968261172f565b602282019050919050565b600081519050919050565b60006117b7826117a1565b6117c18185611724565b93506117d1818560208601610e36565b80840191505092915050565b7f2f7075626c69632d6574682d77616c6c65742f6d61696e2f616464726573732e60008201527f7478740000000000000000000000000000000000000000000000000000000000602082015250565b6000611839602383611724565b9150611844826117dd565b602382019050919050565b600061185a8261177e565b915061186682846117ac565b91506118718261182c565b915081905092915050565b601f8211156118bd5761188e8161165b565b611897846113f2565b810160208510156118a6578190505b6118ba6118b2856113f2565b8301826114d9565b50505b505050565b6118cb826117a1565b67ffffffffffffffff8111156118e4576118e3610eea565b5b6118ee8254611309565b6118f982828561187c565b600060209050601f83116001811461192c576000841561191a578287015190505b611924858261156d565b86555061198c565b601f19841661193a8661165b565b60005b828110156119625784890151825560018201915060208501945060208101905061193d565b8683101561197f578489015161197b601f89168261154f565b8355505b6001600288020188555050505b505050505050565b7f4e487b7100000000000000000000000000000000000000000000000000000000600052601160045260246000fd5b60006119ce82611461565b91506119d983611461565b92508282019050808211156119f1576119f0611994565b5b92915050565b611a0081611461565b82525050565b60007fffffffff0000000000000000000000000000000000000000000000000000000082169050919050565b611a3b81611a06565b82525050565b600060e082019050611a56600083018a611090565b611a6360208301896119f7565b611a706040830188611236565b611a7d6060830187611a32565b611a8a60808301866119f7565b611a9760a08301856119f7565b81810360c0830152611aa98184610e71565b905098975050505050505050565b6000611ac28261128c565b9050919050565b60008160601b9050919050565b6000611ae182611ac9565b9050919050565b6000611af382611ad6565b9050919050565b611b0b611b0682611ab7565b611ae8565b82525050565b6000819050919050565b611b2c611b2782611461565b611b11565b82525050565b6000611b3e8285611afa565b601482019150611b4e8284611b1b565b6020820191508190509392505050565b6000606082019050611b736000830186611090565b611b8060208301856119f7565b8181036040830152611b928184610e71565b9050949350505050565b60008115159050919050565b611bb181611b9c565b8114611bbc57600080fd5b50565b600081519050611bce81611ba8565b92915050565b600060208284031215611bea57611be9610ed6565b5b6000611bf884828501611bbf565b91505092915050565b7f756e61626c6520746f207472616e73666572416e6443616c6c20746f206f726160008201527f636c650000000000000000000000000000000000000000000000000000000000602082015250565b6000611c5d60238361133a565b9150611c6882611c01565b604082019050919050565b60006020820190508181036000830152611c8c81611c50565b9050919050565b7f4e487b7100000000000000000000000000000000000000000000000000000000600052601260045260246000fd5b6000611ccd82611461565b9150611cd883611461565b925082611ce857611ce7611c93565b5b828206905092915050565b6000611cfe82611461565b9150611d0983611461565b9250828203905081811115611d2157611d20611994565b5b92915050565b6000611d3282611461565b9150611d3d83611461565b9250828202611d4b81611461565b91508282048414831517611d6257611d61611994565b5b5092915050565b60008160011c9050919050565b6000808291508390505b6001851115611dc057808604811115611d9c57611d9b611994565b5b6001851615611dab5780820291505b8081029050611db985611d69565b9450611d80565b94509492505050565b600082611dd95760019050611e95565b81611de75760009050611e95565b8160018114611dfd5760028114611e0757611e36565b6001915050611e95565b60ff841115611e1957611e18611994565b5b8360020a915084821115611e3057611e2f611994565b5b50611e95565b5060208310610133831016604e8410600b8410161715611e6b5782820a905083811115611e6657611e65611994565b5b611e95565b611e788484846001611d76565b92509050818404811115611e8f57611e8e611994565b5b81810290505b9392505050565b6000611ea782611461565b9150611eb283611461565b9250611edf7fffffffffffffffffffffffffffffffffffffffffffffffffffffffffffffffff8484611dc9565b90509291505056fea26469706673582212204d23bc5f04e02c5549830ff57a74d03db543d50d8136357d56fef42b0704c42564736f6c63430008110033",
  "linkReferences": {},
  "deployedLinkReferences": {}
}