{
  "_format": "hh-sol-artifact-1",
  "contractName": "Issue",
  "sourceName": "contracts/Issue.sol",
  "abi": [
    {
      "inputs": [
        {
          "internalType": "uint256",
          "name": "id",
          "type": "uint256"
        }
      ],
      "stateMutability": "nonpayable",
      "type": "constructor"
    },
    {
      "inputs": [
        {
          "internalType": "address",
          "name": "",
          "type": "address"
        }
      ],
      "name": "_bounties",
      "outputs": [
        {
          "internalType": "uint256",
          "name": "",
          "type": "uint256"
        }
      ],
      "stateMutability": "view",
      "type": "function"
    },
    {
      "inputs": [],
      "name": "_id",
      "outputs": [
        {
          "internalType": "uint256",
          "name": "",
          "type": "uint256"
        }
      ],
      "stateMutability": "view",
      "type": "function"
    },
    {
      "inputs": [],
      "name": "_totalBounties",
      "outputs": [
        {
          "internalType": "uint256",
          "name": "",
          "type": "uint256"
        }
      ],
      "stateMutability": "view",
      "type": "function"
    },
    {
      "inputs": [
        {
          "internalType": "uint256",
          "name": "amount",
          "type": "uint256"
        }
      ],
      "name": "addBounty",
      "outputs": [],
      "stateMutability": "payable",
      "type": "function"
    },
    {
      "inputs": [
        {
          "internalType": "address",
          "name": "add",
          "type": "address"
        }
      ],
      "name": "getAddressBounty",
      "outputs": [
        {
          "internalType": "uint256",
          "name": "",
          "type": "uint256"
        }
      ],
      "stateMutability": "view",
      "type": "function"
    },
    {
      "inputs": [],
      "name": "getBounty",
      "outputs": [
        {
          "internalType": "uint256",
          "name": "",
          "type": "uint256"
        }
      ],
      "stateMutability": "view",
      "type": "function"
    },
    {
      "inputs": [],
      "name": "getId",
      "outputs": [
        {
          "internalType": "uint256",
          "name": "",
          "type": "uint256"
        }
      ],
      "stateMutability": "view",
      "type": "function"
    }
  ],
  "bytecode": "0x608060405234801561001057600080fd5b5060405161051e38038061051e8339818101604052810190610032919061007a565b80600281905550506100a7565b600080fd5b6000819050919050565b61005781610044565b811461006257600080fd5b50565b6000815190506100748161004e565b92915050565b6000602082840312156100905761008f61003f565b5b600061009e84828501610065565b91505092915050565b610468806100b66000396000f3fe6080604052600436106100705760003560e01c80635d1ca6311161004e5780635d1ca631146100e7578063bac4dba614610112578063c6ec08fe1461014f578063f49bff7b1461018c57610070565b8063051802371461007557806338e43895146100a05780633d8f4afb146100bc575b600080fd5b34801561008157600080fd5b5061008a6101b7565b60405161009791906102cb565b60405180910390f35b6100ba60048036038101906100b59190610317565b6101bd565b005b3480156100c857600080fd5b506100d161023a565b6040516100de91906102cb565b60405180910390f35b3480156100f357600080fd5b506100fc610240565b60405161010991906102cb565b60405180910390f35b34801561011e57600080fd5b50610139600480360381019061013491906103a2565b61024a565b60405161014691906102cb565b60405180910390f35b34801561015b57600080fd5b50610176600480360381019061017191906103a2565b610292565b60405161018391906102cb565b60405180910390f35b34801561019857600080fd5b506101a16102aa565b6040516101ae91906102cb565b60405180910390f35b60025481565b8034146101c957600080fd5b806000803373ffffffffffffffffffffffffffffffffffffffff1673ffffffffffffffffffffffffffffffffffffffff168152602001908152602001600020600082825461021791906103fe565b92505081905550806001600082825461023091906103fe565b9250508190555050565b60015481565b6000600254905090565b60008060008373ffffffffffffffffffffffffffffffffffffffff1673ffffffffffffffffffffffffffffffffffffffff168152602001908152602001600020549050919050565b60006020528060005260406000206000915090505481565b600047905090565b6000819050919050565b6102c5816102b2565b82525050565b60006020820190506102e060008301846102bc565b92915050565b600080fd5b6102f4816102b2565b81146102ff57600080fd5b50565b600081359050610311816102eb565b92915050565b60006020828403121561032d5761032c6102e6565b5b600061033b84828501610302565b91505092915050565b600073ffffffffffffffffffffffffffffffffffffffff82169050919050565b600061036f82610344565b9050919050565b61037f81610364565b811461038a57600080fd5b50565b60008135905061039c81610376565b92915050565b6000602082840312156103b8576103b76102e6565b5b60006103c68482850161038d565b91505092915050565b7f4e487b7100000000000000000000000000000000000000000000000000000000600052601160045260246000fd5b6000610409826102b2565b9150610414836102b2565b925082820190508082111561042c5761042b6103cf565b5b9291505056fea26469706673582212207d2c4375edd80a59f285380c81679907e9c64bff33d1a7e6ba6dbb6ad724604864736f6c63430008110033",
  "linkReferences": {},
  "deployedLinkReferences": {}
}