{
  "_format": "hh-sol-artifact-1",
  "contractName": "Issue",
  "sourceName": "contracts/Issue.sol",
  "abi": [
    {
      "inputs": [
        {
          "internalType": "uint256",
          "name": "id",
          "type": "uint256"
        }
      ],
      "stateMutability": "nonpayable",
      "type": "constructor"
    },
    {
      "anonymous": false,
      "inputs": [
        {
          "indexed": false,
          "internalType": "uint256",
          "name": "id",
          "type": "uint256"
        },
        {
          "indexed": false,
          "internalType": "address",
          "name": "issuer",
          "type": "address"
        },
        {
          "indexed": false,
          "internalType": "uint256",
          "name": "amount",
          "type": "uint256"
        }
      ],
      "name": "BountyAdded",
      "type": "event"
    },
    {
      "inputs": [
        {
          "internalType": "address",
          "name": "",
          "type": "address"
        }
      ],
      "name": "_bounties",
      "outputs": [
        {
          "internalType": "uint256",
          "name": "",
          "type": "uint256"
        }
      ],
      "stateMutability": "view",
      "type": "function"
    },
    {
      "inputs": [],
      "name": "_id",
      "outputs": [
        {
          "internalType": "uint256",
          "name": "",
          "type": "uint256"
        }
      ],
      "stateMutability": "view",
      "type": "function"
    },
    {
      "inputs": [],
      "name": "_totalBounties",
      "outputs": [
        {
          "internalType": "uint256",
          "name": "",
          "type": "uint256"
        }
      ],
      "stateMutability": "view",
      "type": "function"
    },
    {
      "inputs": [
        {
          "internalType": "uint256",
          "name": "amount",
          "type": "uint256"
        }
      ],
      "name": "addBounty",
      "outputs": [],
      "stateMutability": "payable",
      "type": "function"
    },
    {
      "inputs": [
        {
          "internalType": "address",
          "name": "add",
          "type": "address"
        }
      ],
      "name": "getAddressBounty",
      "outputs": [
        {
          "internalType": "uint256",
          "name": "",
          "type": "uint256"
        }
      ],
      "stateMutability": "view",
      "type": "function"
    },
    {
      "inputs": [],
      "name": "getBounty",
      "outputs": [
        {
          "internalType": "uint256",
          "name": "",
          "type": "uint256"
        }
      ],
      "stateMutability": "view",
      "type": "function"
    },
    {
      "inputs": [],
      "name": "getId",
      "outputs": [
        {
          "internalType": "uint256",
          "name": "",
          "type": "uint256"
        }
      ],
      "stateMutability": "view",
      "type": "function"
    }
  ],
  "bytecode": "0x608060405234801561001057600080fd5b506040516105a13803806105a18339818101604052810190610032919061007a565b80600281905550506100a7565b600080fd5b6000819050919050565b61005781610044565b811461006257600080fd5b50565b6000815190506100748161004e565b92915050565b6000602082840312156100905761008f61003f565b5b600061009e84828501610065565b91505092915050565b6104eb806100b66000396000f3fe6080604052600436106100705760003560e01c80635d1ca6311161004e5780635d1ca631146100e7578063bac4dba614610112578063c6ec08fe1461014f578063f49bff7b1461018c57610070565b8063051802371461007557806338e43895146100a05780633d8f4afb146100bc575b600080fd5b34801561008157600080fd5b5061008a6101b7565b6040516100979190610308565b60405180910390f35b6100ba60048036038101906100b59190610354565b6101bd565b005b3480156100c857600080fd5b506100d1610277565b6040516100de9190610308565b60405180910390f35b3480156100f357600080fd5b506100fc61027d565b6040516101099190610308565b60405180910390f35b34801561011e57600080fd5b50610139600480360381019061013491906103df565b610287565b6040516101469190610308565b60405180910390f35b34801561015b57600080fd5b50610176600480360381019061017191906103df565b6102cf565b6040516101839190610308565b60405180910390f35b34801561019857600080fd5b506101a16102e7565b6040516101ae9190610308565b60405180910390f35b60025481565b8034146101c957600080fd5b7f6528cb8b81da63fb1bed84b4a880a2930ed414c089cd9b0b52cacb1d1ef5ab7560025433836040516101fe9392919061041b565b60405180910390a1806000803373ffffffffffffffffffffffffffffffffffffffff1673ffffffffffffffffffffffffffffffffffffffff16815260200190815260200160002060008282546102549190610481565b92505081905550806001600082825461026d9190610481565b9250508190555050565b60015481565b6000600254905090565b60008060008373ffffffffffffffffffffffffffffffffffffffff1673ffffffffffffffffffffffffffffffffffffffff168152602001908152602001600020549050919050565b60006020528060005260406000206000915090505481565b600047905090565b6000819050919050565b610302816102ef565b82525050565b600060208201905061031d60008301846102f9565b92915050565b600080fd5b610331816102ef565b811461033c57600080fd5b50565b60008135905061034e81610328565b92915050565b60006020828403121561036a57610369610323565b5b60006103788482850161033f565b91505092915050565b600073ffffffffffffffffffffffffffffffffffffffff82169050919050565b60006103ac82610381565b9050919050565b6103bc816103a1565b81146103c757600080fd5b50565b6000813590506103d9816103b3565b92915050565b6000602082840312156103f5576103f4610323565b5b6000610403848285016103ca565b91505092915050565b610415816103a1565b82525050565b600060608201905061043060008301866102f9565b61043d602083018561040c565b61044a60408301846102f9565b949350505050565b7f4e487b7100000000000000000000000000000000000000000000000000000000600052601160045260246000fd5b600061048c826102ef565b9150610497836102ef565b92508282019050808211156104af576104ae610452565b5b9291505056fea2646970667358221220409779969c9cda53460bbb96253d9141294f15b062097ed3dba3933a497ea17164736f6c63430008110033",
  "linkReferences": {},
  "deployedLinkReferences": {}
}