{
  "_format": "hh-sol-artifact-1",
  "contractName": "Project",
  "sourceName": "contracts/Project.sol",
  "abi": [
    {
      "inputs": [
        {
          "internalType": "string",
          "name": "name",
          "type": "string"
        },
        {
          "internalType": "string",
          "name": "owner",
          "type": "string"
        }
      ],
      "stateMutability": "nonpayable",
      "type": "constructor"
    },
    {
      "inputs": [
        {
          "internalType": "uint256",
          "name": "",
          "type": "uint256"
        }
      ],
      "name": "_issues",
      "outputs": [
        {
          "internalType": "address",
          "name": "",
          "type": "address"
        }
      ],
      "stateMutability": "view",
      "type": "function"
    },
    {
      "inputs": [],
      "name": "_name",
      "outputs": [
        {
          "internalType": "string",
          "name": "",
          "type": "string"
        }
      ],
      "stateMutability": "view",
      "type": "function"
    },
    {
      "inputs": [],
      "name": "_owner",
      "outputs": [
        {
          "internalType": "string",
          "name": "",
          "type": "string"
        }
      ],
      "stateMutability": "view",
      "type": "function"
    },
    {
      "inputs": [
        {
          "internalType": "uint256",
          "name": "_id",
          "type": "uint256"
        }
      ],
      "name": "createIssue",
      "outputs": [
        {
          "internalType": "address",
          "name": "",
          "type": "address"
        }
      ],
      "stateMutability": "nonpayable",
      "type": "function"
    },
    {
      "inputs": [
        {
          "internalType": "uint256",
          "name": "id",
          "type": "uint256"
        }
      ],
      "name": "getIssue",
      "outputs": [
        {
          "internalType": "address",
          "name": "",
          "type": "address"
        }
      ],
      "stateMutability": "view",
      "type": "function"
    },
    {
      "inputs": [],
      "name": "getName",
      "outputs": [
        {
          "internalType": "string",
          "name": "",
          "type": "string"
        }
      ],
      "stateMutability": "view",
      "type": "function"
    },
    {
      "inputs": [],
      "name": "getOwner",
      "outputs": [
        {
          "internalType": "string",
          "name": "",
          "type": "string"
        }
      ],
      "stateMutability": "view",
      "type": "function"
    }
  ],
  "bytecode": "0x60806040523480156200001157600080fd5b50604051620011f0380380620011f08339818101604052810190620000379190620001f6565b8160019081620000489190620004c6565b5080600290816200005a9190620004c6565b505050620005ad565b6000604051905090565b600080fd5b600080fd5b600080fd5b600080fd5b6000601f19601f8301169050919050565b7f4e487b7100000000000000000000000000000000000000000000000000000000600052604160045260246000fd5b620000cc8262000081565b810181811067ffffffffffffffff82111715620000ee57620000ed62000092565b5b80604052505050565b60006200010362000063565b9050620001118282620000c1565b919050565b600067ffffffffffffffff82111562000134576200013362000092565b5b6200013f8262000081565b9050602081019050919050565b60005b838110156200016c5780820151818401526020810190506200014f565b60008484015250505050565b60006200018f620001898462000116565b620000f7565b905082815260208101848484011115620001ae57620001ad6200007c565b5b620001bb8482856200014c565b509392505050565b600082601f830112620001db57620001da62000077565b5b8151620001ed84826020860162000178565b91505092915050565b6000806040838503121562000210576200020f6200006d565b5b600083015167ffffffffffffffff81111562000231576200023062000072565b5b6200023f85828601620001c3565b925050602083015167ffffffffffffffff81111562000263576200026262000072565b5b6200027185828601620001c3565b9150509250929050565b600081519050919050565b7f4e487b7100000000000000000000000000000000000000000000000000000000600052602260045260246000fd5b60006002820490506001821680620002ce57607f821691505b602082108103620002e457620002e362000286565b5b50919050565b60008190508160005260206000209050919050565b60006020601f8301049050919050565b600082821b905092915050565b6000600883026200034e7fffffffffffffffffffffffffffffffffffffffffffffffffffffffffffffffff826200030f565b6200035a86836200030f565b95508019841693508086168417925050509392505050565b6000819050919050565b6000819050919050565b6000620003a7620003a16200039b8462000372565b6200037c565b62000372565b9050919050565b6000819050919050565b620003c38362000386565b620003db620003d282620003ae565b8484546200031c565b825550505050565b600090565b620003f2620003e3565b620003ff818484620003b8565b505050565b5b8181101562000427576200041b600082620003e8565b60018101905062000405565b5050565b601f82111562000476576200044081620002ea565b6200044b84620002ff565b810160208510156200045b578190505b620004736200046a85620002ff565b83018262000404565b50505b505050565b600082821c905092915050565b60006200049b600019846008026200047b565b1980831691505092915050565b6000620004b6838362000488565b9150826002028217905092915050565b620004d1826200027b565b67ffffffffffffffff811115620004ed57620004ec62000092565b5b620004f98254620002b5565b620005068282856200042b565b600060209050601f8311600181146200053e576000841562000529578287015190505b620005358582620004a8565b865550620005a5565b601f1984166200054e86620002ea565b60005b82811015620005785784890151825560018201915060208501945060208101905062000551565b8683101562000598578489015162000594601f89168262000488565b8355505b6001600288020188555050505b505050505050565b610c3380620005bd6000396000f3fe608060405234801561001057600080fd5b506004361061007d5760003560e01c8063893d20e81161005b578063893d20e814610100578063976b31131461011e578063b2bdfa7b1461014e578063d28d88521461016c5761007d565b806317d7de7c1461008257806318e5df5f146100a05780634b066b0c146100d0575b600080fd5b61008a61018a565b604051610097919061056f565b60405180910390f35b6100ba60048036038101906100b591906105cc565b61021c565b6040516100c7919061063a565b60405180910390f35b6100ea60048036038101906100e591906105cc565b6102b5565b6040516100f7919061063a565b60405180910390f35b6101086102e8565b604051610115919061056f565b60405180910390f35b610138600480360381019061013391906105cc565b61037a565b604051610145919061063a565b60405180910390f35b6101566103b6565b604051610163919061056f565b60405180910390f35b610174610444565b604051610181919061056f565b60405180910390f35b60606001805461019990610684565b80601f01602080910402602001604051908101604052809291908181526020018280546101c590610684565b80156102125780601f106101e757610100808354040283529160200191610212565b820191906000526020600020905b8154815290600101906020018083116101f557829003601f168201915b5050505050905090565b6000808260405161022c906104d2565b61023691906106c4565b604051809103906000f080158015610252573d6000803e3d6000fd5b50905060008190508060008086815260200190815260200160002060006101000a81548173ffffffffffffffffffffffffffffffffffffffff021916908373ffffffffffffffffffffffffffffffffffffffff1602179055508092505050919050565b60006020528060005260406000206000915054906101000a900473ffffffffffffffffffffffffffffffffffffffff1681565b6060600280546102f790610684565b80601f016020809104026020016040519081016040528092919081815260200182805461032390610684565b80156103705780601f1061034557610100808354040283529160200191610370565b820191906000526020600020905b81548152906001019060200180831161035357829003601f168201915b5050505050905090565b600080600083815260200190815260200160002060009054906101000a900473ffffffffffffffffffffffffffffffffffffffff169050919050565b600280546103c390610684565b80601f01602080910402602001604051908101604052809291908181526020018280546103ef90610684565b801561043c5780601f106104115761010080835404028352916020019161043c565b820191906000526020600020905b81548152906001019060200180831161041f57829003601f168201915b505050505081565b6001805461045190610684565b80601f016020809104026020016040519081016040528092919081815260200182805461047d90610684565b80156104ca5780601f1061049f576101008083540402835291602001916104ca565b820191906000526020600020905b8154815290600101906020018083116104ad57829003601f168201915b505050505081565b61051e806106e083390190565b600081519050919050565b600082825260208201905092915050565b60005b838110156105195780820151818401526020810190506104fe565b60008484015250505050565b6000601f19601f8301169050919050565b6000610541826104df565b61054b81856104ea565b935061055b8185602086016104fb565b61056481610525565b840191505092915050565b600060208201905081810360008301526105898184610536565b905092915050565b600080fd5b6000819050919050565b6105a981610596565b81146105b457600080fd5b50565b6000813590506105c6816105a0565b92915050565b6000602082840312156105e2576105e1610591565b5b60006105f0848285016105b7565b91505092915050565b600073ffffffffffffffffffffffffffffffffffffffff82169050919050565b6000610624826105f9565b9050919050565b61063481610619565b82525050565b600060208201905061064f600083018461062b565b92915050565b7f4e487b7100000000000000000000000000000000000000000000000000000000600052602260045260246000fd5b6000600282049050600182168061069c57607f821691505b6020821081036106af576106ae610655565b5b50919050565b6106be81610596565b82525050565b60006020820190506106d960008301846106b5565b9291505056fe608060405234801561001057600080fd5b5060405161051e38038061051e8339818101604052810190610032919061007a565b80600281905550506100a7565b600080fd5b6000819050919050565b61005781610044565b811461006257600080fd5b50565b6000815190506100748161004e565b92915050565b6000602082840312156100905761008f61003f565b5b600061009e84828501610065565b91505092915050565b610468806100b66000396000f3fe6080604052600436106100705760003560e01c80635d1ca6311161004e5780635d1ca631146100e7578063bac4dba614610112578063c6ec08fe1461014f578063f49bff7b1461018c57610070565b8063051802371461007557806338e43895146100a05780633d8f4afb146100bc575b600080fd5b34801561008157600080fd5b5061008a6101b7565b60405161009791906102cb565b60405180910390f35b6100ba60048036038101906100b59190610317565b6101bd565b005b3480156100c857600080fd5b506100d161023a565b6040516100de91906102cb565b60405180910390f35b3480156100f357600080fd5b506100fc610240565b60405161010991906102cb565b60405180910390f35b34801561011e57600080fd5b50610139600480360381019061013491906103a2565b61024a565b60405161014691906102cb565b60405180910390f35b34801561015b57600080fd5b50610176600480360381019061017191906103a2565b610292565b60405161018391906102cb565b60405180910390f35b34801561019857600080fd5b506101a16102aa565b6040516101ae91906102cb565b60405180910390f35b60025481565b8034146101c957600080fd5b806000803373ffffffffffffffffffffffffffffffffffffffff1673ffffffffffffffffffffffffffffffffffffffff168152602001908152602001600020600082825461021791906103fe565b92505081905550806001600082825461023091906103fe565b9250508190555050565b60015481565b6000600254905090565b60008060008373ffffffffffffffffffffffffffffffffffffffff1673ffffffffffffffffffffffffffffffffffffffff168152602001908152602001600020549050919050565b60006020528060005260406000206000915090505481565b600047905090565b6000819050919050565b6102c5816102b2565b82525050565b60006020820190506102e060008301846102bc565b92915050565b600080fd5b6102f4816102b2565b81146102ff57600080fd5b50565b600081359050610311816102eb565b92915050565b60006020828403121561032d5761032c6102e6565b5b600061033b84828501610302565b91505092915050565b600073ffffffffffffffffffffffffffffffffffffffff82169050919050565b600061036f82610344565b9050919050565b61037f81610364565b811461038a57600080fd5b50565b60008135905061039c81610376565b92915050565b6000602082840312156103b8576103b76102e6565b5b60006103c68482850161038d565b91505092915050565b7f4e487b7100000000000000000000000000000000000000000000000000000000600052601160045260246000fd5b6000610409826102b2565b9150610414836102b2565b925082820190508082111561042c5761042b6103cf565b5b9291505056fea26469706673582212207d2c4375edd80a59f285380c81679907e9c64bff33d1a7e6ba6dbb6ad724604864736f6c63430008110033a2646970667358221220fdcd04b2e050eb6ec01c6e00f9f230c90f367370ff954b938bba8492f551ff0764736f6c63430008110033",
  "linkReferences": {},
  "deployedLinkReferences": {}
}